{
  "contractName": "Ecommerce",
  "abi": [
    {
      "anonymous": false,
      "inputs": [
        {
          "indexed": false,
          "internalType": "uint256",
          "name": "id",
          "type": "uint256"
        },
        {
          "indexed": false,
          "internalType": "uint256",
          "name": "productId",
          "type": "uint256"
        },
        {
          "indexed": false,
          "internalType": "uint256",
          "name": "itemsCount",
          "type": "uint256"
        },
        {
          "indexed": false,
          "internalType": "uint256",
          "name": "price",
          "type": "uint256"
        },
        {
          "indexed": false,
          "internalType": "string",
          "name": "categories",
          "type": "string"
        },
        {
          "indexed": false,
          "internalType": "string",
          "name": "hash",
          "type": "string"
        },
        {
          "indexed": false,
          "internalType": "string",
          "name": "title",
          "type": "string"
        },
        {
          "indexed": false,
          "internalType": "address",
          "name": "author",
          "type": "address"
        }
      ],
      "name": "ProductUploaded",
      "type": "event"
    },
    {
      "constant": true,
      "inputs": [],
      "name": "name",
      "outputs": [
        {
          "internalType": "string",
          "name": "",
          "type": "string"
        }
      ],
      "payable": false,
      "stateMutability": "view",
      "type": "function"
    },
    {
      "constant": true,
      "inputs": [],
      "name": "productCount",
      "outputs": [
        {
          "internalType": "uint256",
          "name": "",
          "type": "uint256"
        }
      ],
      "payable": false,
      "stateMutability": "view",
      "type": "function"
    },
    {
      "constant": true,
      "inputs": [
        {
          "internalType": "uint256",
          "name": "",
          "type": "uint256"
        }
      ],
      "name": "products",
      "outputs": [
        {
          "internalType": "uint256",
          "name": "id",
          "type": "uint256"
        },
        {
          "internalType": "uint256",
          "name": "productId",
          "type": "uint256"
        },
        {
          "internalType": "uint256",
          "name": "itemsCount",
          "type": "uint256"
        },
        {
          "internalType": "uint256",
          "name": "price",
          "type": "uint256"
        },
        {
          "internalType": "string",
          "name": "categories",
          "type": "string"
        },
        {
          "internalType": "string",
          "name": "hash",
          "type": "string"
        },
        {
          "internalType": "string",
          "name": "title",
          "type": "string"
        },
        {
          "internalType": "address",
          "name": "author",
          "type": "address"
        }
      ],
      "payable": false,
      "stateMutability": "view",
      "type": "function"
    },
    {
      "constant": false,
      "inputs": [
        {
          "internalType": "uint256",
          "name": "_productId",
          "type": "uint256"
        },
        {
          "internalType": "uint256",
          "name": "_itemsCount",
          "type": "uint256"
        },
        {
          "internalType": "uint256",
          "name": "_price",
          "type": "uint256"
        },
        {
          "internalType": "string",
          "name": "_categories",
          "type": "string"
        },
        {
          "internalType": "string",
          "name": "_Hash",
          "type": "string"
        },
        {
          "internalType": "string",
          "name": "_title",
          "type": "string"
        }
      ],
      "name": "uploadVideo",
      "outputs": [],
      "payable": false,
      "stateMutability": "nonpayable",
      "type": "function"
    }
  ],
  "bytecode": "0x6080604052600080556040518060400160405280600781526020017f50726f647563740000000000000000000000000000000000000000000000000081525060019080519060200190610053929190610066565b5034801561006057600080fd5b5061010b565b828054600181600116156101000203166002900490600052602060002090601f016020900481019282601f106100a757805160ff19168380011785556100d5565b828001600101855582156100d5579182015b828111156100d45782518255916020019190600101906100b9565b5b5090506100e291906100e6565b5090565b61010891905b808211156101045760008160009055506001016100ec565b5090565b90565b610c148061011a6000396000f3fe608060405234801561001057600080fd5b506004361061004c5760003560e01c806306fdde03146100515780637acc0b20146100d457806388ead62d146102a2578063e0f6ef87146104a9575b600080fd5b6100596104c7565b6040518080602001828103825283818151815260200191508051906020019080838360005b8381101561009957808201518184015260208101905061007e565b50505050905090810190601f1680156100c65780820380516001836020036101000a031916815260200191505b509250505060405180910390f35b610100600480360360208110156100ea57600080fd5b8101908080359060200190929190505050610565565b604051808981526020018881526020018781526020018681526020018060200180602001806020018573ffffffffffffffffffffffffffffffffffffffff1673ffffffffffffffffffffffffffffffffffffffff168152602001848103845288818151815260200191508051906020019080838360005b83811015610192578082015181840152602081019050610177565b50505050905090810190601f1680156101bf5780820380516001836020036101000a031916815260200191505b50848103835287818151815260200191508051906020019080838360005b838110156101f85780820151818401526020810190506101dd565b50505050905090810190601f1680156102255780820380516001836020036101000a031916815260200191505b50848103825286818151815260200191508051906020019080838360005b8381101561025e578082015181840152602081019050610243565b50505050905090810190601f16801561028b5780820380516001836020036101000a031916815260200191505b509b50505050505050505050505060405180910390f35b6104a7600480360360c08110156102b857600080fd5b81019080803590602001909291908035906020019092919080359060200190929190803590602001906401000000008111156102f357600080fd5b82018360208201111561030557600080fd5b8035906020019184600183028401116401000000008311171561032757600080fd5b91908080601f016020809104026020016040519081016040528093929190818152602001838380828437600081840152601f19601f8201169050808301925050505050505091929192908035906020019064010000000081111561038a57600080fd5b82018360208201111561039c57600080fd5b803590602001918460018302840111640100000000831117156103be57600080fd5b91908080601f016020809104026020016040519081016040528093929190818152602001838380828437600081840152601f19601f8201169050808301925050505050505091929192908035906020019064010000000081111561042157600080fd5b82018360208201111561043357600080fd5b8035906020019184600183028401116401000000008311171561045557600080fd5b91908080601f016020809104026020016040519081016040528093929190818152602001838380828437600081840152601f19601f820116905080830192505050505050509192919290505050610795565b005b6104b1610b34565b6040518082815260200191505060405180910390f35b60018054600181600116156101000203166002900480601f01602080910402602001604051908101604052809291908181526020018280546001816001161561010002031660029004801561055d5780601f106105325761010080835404028352916020019161055d565b820191906000526020600020905b81548152906001019060200180831161054057829003601f168201915b505050505081565b6002602052806000526040600020600091509050806000015490806001015490806002015490806003015490806004018054600181600116156101000203166002900480601f0160208091040260200160405190810160405280929190818152602001828054600181600116156101000203166002900480156106295780601f106105fe57610100808354040283529160200191610629565b820191906000526020600020905b81548152906001019060200180831161060c57829003601f168201915b505050505090806005018054600181600116156101000203166002900480601f0160208091040260200160405190810160405280929190818152602001828054600181600116156101000203166002900480156106c75780601f1061069c576101008083540402835291602001916106c7565b820191906000526020600020905b8154815290600101906020018083116106aa57829003601f168201915b505050505090806006018054600181600116156101000203166002900480601f0160208091040260200160405190810160405280929190818152602001828054600181600116156101000203166002900480156107655780601f1061073a57610100808354040283529160200191610765565b820191906000526020600020905b81548152906001019060200180831161074857829003601f168201915b5050505050908060070160009054906101000a900473ffffffffffffffffffffffffffffffffffffffff16905088565b600086116107a257600080fd5b600085116107af57600080fd5b60008351116107bd57600080fd5b600084116107ca57600080fd5b60008251116107d857600080fd5b60008151116107e657600080fd5b600073ffffffffffffffffffffffffffffffffffffffff163373ffffffffffffffffffffffffffffffffffffffff16141561082057600080fd5b600080815480929190600101919050555060405180610100016040528060005481526020018781526020018681526020018581526020018481526020018381526020018281526020013373ffffffffffffffffffffffffffffffffffffffff1681525060026000805481526020019081526020016000206000820151816000015560208201518160010155604082015181600201556060820151816003015560808201518160040190805190602001906108db929190610b3a565b5060a08201518160050190805190602001906108f8929190610b3a565b5060c0820151816006019080519060200190610915929190610b3a565b5060e08201518160070160006101000a81548173ffffffffffffffffffffffffffffffffffffffff021916908373ffffffffffffffffffffffffffffffffffffffff1602179055509050507f25c984f9c1c39eafb673d3e8083ee23ac810b2ebf6d7d3395e16e4e6e820cd6960005487878787878733604051808981526020018881526020018781526020018681526020018060200180602001806020018573ffffffffffffffffffffffffffffffffffffffff1673ffffffffffffffffffffffffffffffffffffffff168152602001848103845288818151815260200191508051906020019080838360005b83811015610a1d578082015181840152602081019050610a02565b50505050905090810190601f168015610a4a5780820380516001836020036101000a031916815260200191505b50848103835287818151815260200191508051906020019080838360005b83811015610a83578082015181840152602081019050610a68565b50505050905090810190601f168015610ab05780820380516001836020036101000a031916815260200191505b50848103825286818151815260200191508051906020019080838360005b83811015610ae9578082015181840152602081019050610ace565b50505050905090810190601f168015610b165780820380516001836020036101000a031916815260200191505b509b50505050505050505050505060405180910390a1505050505050565b60005481565b828054600181600116156101000203166002900490600052602060002090601f016020900481019282601f10610b7b57805160ff1916838001178555610ba9565b82800160010185558215610ba9579182015b82811115610ba8578251825591602001919060010190610b8d565b5b509050610bb69190610bba565b5090565b610bdc91905b80821115610bd8576000816000905550600101610bc0565b5090565b9056fea265627a7a72315820d95d7a1bd12a4924edf7592b7337f2e81db5f8c0da4f7c09e45a6338045ab44464736f6c63430005100032",
  "source": "// SPDX-License-Identifier: MIT\r\npragma solidity >=0.4.21 <0.9.0;\r\n\r\ncontract Ecommerce {\r\n  uint public productCount = 0;\r\n  string public name = \"Product\";\r\n  mapping(uint => Product) public products;\r\n  uint lastUpdated;\r\n  \r\n\r\n  struct Product {\r\n    uint id;\r\n    uint productId;\r\n    uint itemsCount;\r\n    uint price;\r\n    string categories;\r\n    string hash;\r\n    string title;\r\n    address author;\r\n  }\r\n\r\n  event ProductUploaded(\r\n    uint id,\r\n    uint productId,\r\n    uint itemsCount,\r\n    uint price,\r\n    string categories,\r\n    string hash,\r\n    string title,\r\n    address author\r\n    \r\n  );\r\n\r\n  function uploadVideo(uint _productId, uint _itemsCount,uint _price, string memory _categories, string memory _Hash, string memory _title) public {\r\n    \r\n    require(_productId > 0);\r\n    require(_itemsCount > 0);\r\n    require(bytes(_categories).length > 0);\r\n    require(_price > 0);\r\n    require(bytes(_Hash).length > 0);\r\n    require(bytes(_title).length > 0);\r\n    require(msg.sender!=address(0));\r\n    \r\n    // Increment product count\r\n    productCount ++;\r\n    // Add product to the contract\r\n    products[productCount] = Product(productCount, _productId, _itemsCount,_price, _categories, _Hash, _title, msg.sender);\r\n    // Trigger an event\r\n    emit ProductUploaded(productCount, _productId,_itemsCount, _price,_categories, _Hash, _title, msg.sender);\r\n  }\r\n}\r\n",
  "sourcePath": "F:\\BlockChain\\e-commerce\\e-commerce-smart-contract\\contracts\\Ecommerce.sol",
  "compiler": {
    "name": "solc",
    "version": "0.5.16+commit.9c3226ce.Emscripten.clang"
  },
  "schemaVersion": "3.0.23",
  "updatedAt": "2022-07-24T05:48:06.789Z",
  "networkType": "ethereum",
  "devdoc": {
    "methods": {}
  },
  "userdoc": {
    "methods": {}
  }
}