{
  "contractName": "AddProduct",
  "abi": [
    {
      "anonymous": false,
      "inputs": [
        {
          "indexed": false,
          "internalType": "uint256",
          "name": "id",
          "type": "uint256"
        },
        {
          "indexed": false,
          "internalType": "uint256",
          "name": "productId",
          "type": "uint256"
        },
        {
          "indexed": false,
          "internalType": "uint256",
          "name": "itemsCount",
          "type": "uint256"
        },
        {
          "indexed": false,
          "internalType": "uint256",
          "name": "price",
          "type": "uint256"
        },
        {
          "indexed": false,
          "internalType": "string",
          "name": "categories",
          "type": "string"
        },
        {
          "indexed": false,
          "internalType": "string",
          "name": "hash",
          "type": "string"
        },
        {
          "indexed": false,
          "internalType": "string",
          "name": "title",
          "type": "string"
        },
        {
          "indexed": false,
          "internalType": "address",
          "name": "author",
          "type": "address"
        }
      ],
      "name": "ProductUploaded",
      "type": "event"
    },
    {
      "inputs": [],
      "name": "name",
      "outputs": [
        {
          "internalType": "string",
          "name": "",
          "type": "string"
        }
      ],
      "stateMutability": "view",
      "type": "function",
      "constant": true
    },
    {
      "inputs": [],
      "name": "productCount",
      "outputs": [
        {
          "internalType": "uint256",
          "name": "",
          "type": "uint256"
        }
      ],
      "stateMutability": "view",
      "type": "function",
      "constant": true
    },
    {
      "inputs": [
        {
          "internalType": "uint256",
          "name": "",
          "type": "uint256"
        }
      ],
      "name": "products",
      "outputs": [
        {
          "internalType": "uint256",
          "name": "id",
          "type": "uint256"
        },
        {
          "internalType": "uint256",
          "name": "productId",
          "type": "uint256"
        },
        {
          "internalType": "uint256",
          "name": "itemsCount",
          "type": "uint256"
        },
        {
          "internalType": "uint256",
          "name": "price",
          "type": "uint256"
        },
        {
          "internalType": "string",
          "name": "categories",
          "type": "string"
        },
        {
          "internalType": "string",
          "name": "hash",
          "type": "string"
        },
        {
          "internalType": "string",
          "name": "title",
          "type": "string"
        },
        {
          "internalType": "address",
          "name": "author",
          "type": "address"
        }
      ],
      "stateMutability": "view",
      "type": "function",
      "constant": true
    },
    {
      "inputs": [
        {
          "internalType": "uint256",
          "name": "_productId",
          "type": "uint256"
        },
        {
          "internalType": "uint256",
          "name": "_itemsCount",
          "type": "uint256"
        },
        {
          "internalType": "uint256",
          "name": "_price",
          "type": "uint256"
        },
        {
          "internalType": "string",
          "name": "_categories",
          "type": "string"
        },
        {
          "internalType": "string",
          "name": "_Hash",
          "type": "string"
        },
        {
          "internalType": "string",
          "name": "_title",
          "type": "string"
        }
      ],
      "name": "uploadVideo",
      "outputs": [],
      "stateMutability": "nonpayable",
      "type": "function"
    }
  ],
  "bytecode": "0x6080604052600080556040518060400160405280600781526020017f50726f6475637400000000000000000000000000000000000000000000000000815250600190816200004e9190620002dd565b503480156200005c57600080fd5b50620003c4565b600081519050919050565b7f4e487b7100000000000000000000000000000000000000000000000000000000600052604160045260246000fd5b7f4e487b7100000000000000000000000000000000000000000000000000000000600052602260045260246000fd5b60006002820490506001821680620000e557607f821691505b602082108103620000fb57620000fa6200009d565b5b50919050565b60008190508160005260206000209050919050565b60006020601f8301049050919050565b600082821b905092915050565b600060088302620001657fffffffffffffffffffffffffffffffffffffffffffffffffffffffffffffffff8262000126565b62000171868362000126565b95508019841693508086168417925050509392505050565b6000819050919050565b6000819050919050565b6000620001be620001b8620001b28462000189565b62000193565b62000189565b9050919050565b6000819050919050565b620001da836200019d565b620001f2620001e982620001c5565b84845462000133565b825550505050565b600090565b62000209620001fa565b62000216818484620001cf565b505050565b5b818110156200023e5762000232600082620001ff565b6001810190506200021c565b5050565b601f8211156200028d57620002578162000101565b620002628462000116565b8101602085101562000272578190505b6200028a620002818562000116565b8301826200021b565b50505b505050565b600082821c905092915050565b6000620002b26000198460080262000292565b1980831691505092915050565b6000620002cd83836200029f565b9150826002028217905092915050565b620002e88262000063565b67ffffffffffffffff8111156200030457620003036200006e565b5b620003108254620000cc565b6200031d82828562000242565b600060209050601f83116001811462000355576000841562000340578287015190505b6200034c8582620002bf565b865550620003bc565b601f198416620003658662000101565b60005b828110156200038f5784890151825560018201915060208501945060208101905062000368565b86831015620003af5784890151620003ab601f8916826200029f565b8355505b6001600288020188555050505b505050505050565b610d4f80620003d46000396000f3fe608060405234801561001057600080fd5b506004361061004c5760003560e01c806306fdde03146100515780637acc0b201461006f57806388ead62d146100a6578063e0f6ef87146100c2575b600080fd5b6100596100e0565b6040516100669190610617565b60405180910390f35b61008960048036038101906100849190610683565b61016e565b60405161009d989796959493929190610700565b60405180910390f35b6100c060048036038101906100bb91906108c8565b61036e565b005b6100ca610578565b6040516100d791906109a9565b60405180910390f35b600180546100ed906109f3565b80601f0160208091040260200160405190810160405280929190818152602001828054610119906109f3565b80156101665780601f1061013b57610100808354040283529160200191610166565b820191906000526020600020905b81548152906001019060200180831161014957829003601f168201915b505050505081565b60026020528060005260406000206000915090508060000154908060010154908060020154908060030154908060040180546101a9906109f3565b80601f01602080910402602001604051908101604052809291908181526020018280546101d5906109f3565b80156102225780601f106101f757610100808354040283529160200191610222565b820191906000526020600020905b81548152906001019060200180831161020557829003601f168201915b505050505090806005018054610237906109f3565b80601f0160208091040260200160405190810160405280929190818152602001828054610263906109f3565b80156102b05780601f10610285576101008083540402835291602001916102b0565b820191906000526020600020905b81548152906001019060200180831161029357829003601f168201915b5050505050908060060180546102c5906109f3565b80601f01602080910402602001604051908101604052809291908181526020018280546102f1906109f3565b801561033e5780601f106103135761010080835404028352916020019161033e565b820191906000526020600020905b81548152906001019060200180831161032157829003601f168201915b5050505050908060070160009054906101000a900473ffffffffffffffffffffffffffffffffffffffff16905088565b6000861161037b57600080fd5b6000851161038857600080fd5b600083511161039657600080fd5b600084116103a357600080fd5b60008251116103b157600080fd5b60008151116103bf57600080fd5b600073ffffffffffffffffffffffffffffffffffffffff163373ffffffffffffffffffffffffffffffffffffffff16036103f857600080fd5b60008081548092919061040a90610a53565b919050555060405180610100016040528060005481526020018781526020018681526020018581526020018481526020018381526020018281526020013373ffffffffffffffffffffffffffffffffffffffff1681525060026000805481526020019081526020016000206000820151816000015560208201518160010155604082015181600201556060820151816003015560808201518160040190816104b29190610c47565b5060a08201518160050190816104c89190610c47565b5060c08201518160060190816104de9190610c47565b5060e08201518160070160006101000a81548173ffffffffffffffffffffffffffffffffffffffff021916908373ffffffffffffffffffffffffffffffffffffffff1602179055509050507f25c984f9c1c39eafb673d3e8083ee23ac810b2ebf6d7d3395e16e4e6e820cd6960005487878787878733604051610568989796959493929190610700565b60405180910390a1505050505050565b60005481565b600081519050919050565b600082825260208201905092915050565b60005b838110156105b857808201518184015260208101905061059d565b838111156105c7576000848401525b50505050565b6000601f19601f8301169050919050565b60006105e98261057e565b6105f38185610589565b935061060381856020860161059a565b61060c816105cd565b840191505092915050565b6000602082019050818103600083015261063181846105de565b905092915050565b6000604051905090565b600080fd5b600080fd5b6000819050919050565b6106608161064d565b811461066b57600080fd5b50565b60008135905061067d81610657565b92915050565b60006020828403121561069957610698610643565b5b60006106a78482850161066e565b91505092915050565b6106b98161064d565b82525050565b600073ffffffffffffffffffffffffffffffffffffffff82169050919050565b60006106ea826106bf565b9050919050565b6106fa816106df565b82525050565b600061010082019050610716600083018b6106b0565b610723602083018a6106b0565b61073060408301896106b0565b61073d60608301886106b0565b818103608083015261074f81876105de565b905081810360a083015261076381866105de565b905081810360c083015261077781856105de565b905061078660e08301846106f1565b9998505050505050505050565b600080fd5b600080fd5b7f4e487b7100000000000000000000000000000000000000000000000000000000600052604160045260246000fd5b6107d5826105cd565b810181811067ffffffffffffffff821117156107f4576107f361079d565b5b80604052505050565b6000610807610639565b905061081382826107cc565b919050565b600067ffffffffffffffff8211156108335761083261079d565b5b61083c826105cd565b9050602081019050919050565b82818337600083830152505050565b600061086b61086684610818565b6107fd565b90508281526020810184848401111561088757610886610798565b5b610892848285610849565b509392505050565b600082601f8301126108af576108ae610793565b5b81356108bf848260208601610858565b91505092915050565b60008060008060008060c087890312156108e5576108e4610643565b5b60006108f389828a0161066e565b965050602061090489828a0161066e565b955050604061091589828a0161066e565b945050606087013567ffffffffffffffff81111561093657610935610648565b5b61094289828a0161089a565b935050608087013567ffffffffffffffff81111561096357610962610648565b5b61096f89828a0161089a565b92505060a087013567ffffffffffffffff8111156109905761098f610648565b5b61099c89828a0161089a565b9150509295509295509295565b60006020820190506109be60008301846106b0565b92915050565b7f4e487b7100000000000000000000000000000000000000000000000000000000600052602260045260246000fd5b60006002820490506001821680610a0b57607f821691505b602082108103610a1e57610a1d6109c4565b5b50919050565b7f4e487b7100000000000000000000000000000000000000000000000000000000600052601160045260246000fd5b6000610a5e8261064d565b91507fffffffffffffffffffffffffffffffffffffffffffffffffffffffffffffffff8203610a9057610a8f610a24565b5b600182019050919050565b60008190508160005260206000209050919050565b60006020601f8301049050919050565b600082821b905092915050565b600060088302610afd7fffffffffffffffffffffffffffffffffffffffffffffffffffffffffffffffff82610ac0565b610b078683610ac0565b95508019841693508086168417925050509392505050565b6000819050919050565b6000610b44610b3f610b3a8461064d565b610b1f565b61064d565b9050919050565b6000819050919050565b610b5e83610b29565b610b72610b6a82610b4b565b848454610acd565b825550505050565b600090565b610b87610b7a565b610b92818484610b55565b505050565b5b81811015610bb657610bab600082610b7f565b600181019050610b98565b5050565b601f821115610bfb57610bcc81610a9b565b610bd584610ab0565b81016020851015610be4578190505b610bf8610bf085610ab0565b830182610b97565b50505b505050565b600082821c905092915050565b6000610c1e60001984600802610c00565b1980831691505092915050565b6000610c378383610c0d565b9150826002028217905092915050565b610c508261057e565b67ffffffffffffffff811115610c6957610c6861079d565b5b610c7382546109f3565b610c7e828285610bba565b600060209050601f831160018114610cb15760008415610c9f578287015190505b610ca98582610c2b565b865550610d11565b601f198416610cbf86610a9b565b60005b82811015610ce757848901518255600182019150602085019450602081019050610cc2565b86831015610d045784890151610d00601f891682610c0d565b8355505b6001600288020188555050505b50505050505056fea264697066735822122095e01b9cc0b27c1312dabc5adaaed70ecd2935a8f3740ff619acacda9424368964736f6c634300080f0033",
  "immutableReferences": {},
  "source": "// SPDX-License-Identifier: MIT\r\npragma solidity >=0.4.21 <0.9.0;\r\n\r\ncontract AddProduct {\r\n  uint public productCount = 0;\r\n  string public name = \"Product\";\r\n  mapping(uint => Product) public products;\r\n  uint lastUpdated;\r\n  \r\n\r\n  struct Product {\r\n    uint id;\r\n    uint productId;\r\n    uint itemsCount;\r\n    uint price;\r\n    string categories;\r\n    string hash;\r\n    string title;\r\n    address author;\r\n  }\r\n\r\n  event ProductUploaded(\r\n    uint id,\r\n    uint productId,\r\n    uint itemsCount,\r\n    uint price,\r\n    string categories,\r\n    string hash,\r\n    string title,\r\n    address author\r\n    \r\n  );\r\n\r\n  function uploadVideo(uint _productId, uint _itemsCount,uint _price, string memory _categories, string memory _Hash, string memory _title) public {\r\n    \r\n    require(_productId > 0);\r\n    require(_itemsCount > 0);\r\n    require(bytes(_categories).length > 0);\r\n    require(_price > 0);\r\n    require(bytes(_Hash).length > 0);\r\n    require(bytes(_title).length > 0);\r\n    require(msg.sender!=address(0));\r\n    \r\n    // Increment product count\r\n    productCount ++;\r\n    // Add product to the contract\r\n    products[productCount] = Product(productCount, _productId, _itemsCount, _price, _categories, _Hash, _title, msg.sender);\r\n    // Trigger an event\r\n    emit ProductUploaded(productCount, _productId,_itemsCount, _price,_categories, _Hash, _title, msg.sender);\r\n  }\r\n}\r\n",
  "sourcePath": "C:\\Users\\ravi9\\OneDrive\\Desktop\\React-App\\dshop\\smartcontract\\contracts\\AddProduct.sol",
  "compiler": {
    "name": "solc",
    "version": "0.8.15+commit.e14f2714.Emscripten.clang"
  },
  "schemaVersion": "3.4.8",
  "updatedAt": "2022-07-24T03:02:12.086Z",
  "networkType": "ethereum",
  "devdoc": {
    "kind": "dev",
    "methods": {},
    "version": 1
  },
  "userdoc": {
    "kind": "user",
    "methods": {},
    "version": 1
  }
}